{
  "abi": [
    {
      "type": "function",
      "name": "MIN_AMOUNT",
      "inputs": [],
      "outputs": [
        {
          "name": "",
          "type": "uint256",
          "internalType": "uint256"
        }
      ],
      "stateMutability": "view"
    },
    {
      "type": "function",
      "name": "claim",
      "inputs": [
        {
          "name": "poolId",
          "type": "bytes32",
          "internalType": "bytes32"
        }
      ],
      "outputs": [],
      "stateMutability": "nonpayable"
    },
    {
      "type": "function",
      "name": "claimAmounts",
      "inputs": [
        {
          "name": "",
          "type": "bytes32",
          "internalType": "bytes32"
        },
        {
          "name": "",
          "type": "uint8",
          "internalType": "uint8"
        }
      ],
      "outputs": [
        {
          "name": "",
          "type": "uint256",
          "internalType": "uint256"
        }
      ],
      "stateMutability": "view"
    },
    {
      "type": "function",
      "name": "claimants",
      "inputs": [
        {
          "name": "",
          "type": "bytes32",
          "internalType": "bytes32"
        },
        {
          "name": "",
          "type": "uint8",
          "internalType": "uint8"
        }
      ],
      "outputs": [
        {
          "name": "",
          "type": "address",
          "internalType": "address"
        }
      ],
      "stateMutability": "view"
    },
    {
      "type": "function",
      "name": "createPool",
      "inputs": [
        {
          "name": "poolId",
          "type": "bytes32",
          "internalType": "bytes32"
        },
        {
          "name": "shares",
          "type": "uint8",
          "internalType": "uint8"
        },
        {
          "name": "memo",
          "type": "bytes32",
          "internalType": "bytes32"
        },
        {
          "name": "token",
          "type": "address",
          "internalType": "address"
        },
        {
          "name": "amount",
          "type": "uint256",
          "internalType": "uint256"
        }
      ],
      "outputs": [],
      "stateMutability": "nonpayable"
    },
    {
      "type": "function",
      "name": "getClaimInfo",
      "inputs": [
        {
          "name": "poolId",
          "type": "bytes32",
          "internalType": "bytes32"
        },
        {
          "name": "claimIndex",
          "type": "uint8",
          "internalType": "uint8"
        }
      ],
      "outputs": [
        {
          "name": "claimer",
          "type": "address",
          "internalType": "address"
        },
        {
          "name": "amount",
          "type": "uint256",
          "internalType": "uint256"
        }
      ],
      "stateMutability": "view"
    },
    {
      "type": "function",
      "name": "getPool",
      "inputs": [
        {
          "name": "poolId",
          "type": "bytes32",
          "internalType": "bytes32"
        }
      ],
      "outputs": [
        {
          "name": "",
          "type": "tuple",
          "internalType": "struct PacketPool.Pool",
          "components": [
            {
              "name": "creator",
              "type": "address",
              "internalType": "address"
            },
            {
              "name": "token",
              "type": "address",
              "internalType": "address"
            },
            {
              "name": "totalAmount",
              "type": "uint256",
              "internalType": "uint256"
            },
            {
              "name": "remainingAmount",
              "type": "uint256",
              "internalType": "uint256"
            },
            {
              "name": "totalShares",
              "type": "uint8",
              "internalType": "uint8"
            },
            {
              "name": "claimedShares",
              "type": "uint8",
              "internalType": "uint8"
            },
            {
              "name": "commitBlock",
              "type": "uint256",
              "internalType": "uint256"
            },
            {
              "name": "memo",
              "type": "bytes32",
              "internalType": "bytes32"
            },
            {
              "name": "exists",
              "type": "bool",
              "internalType": "bool"
            }
          ]
        }
      ],
      "stateMutability": "view"
    },
    {
      "type": "function",
      "name": "getPoolClaims",
      "inputs": [
        {
          "name": "poolId",
          "type": "bytes32",
          "internalType": "bytes32"
        }
      ],
      "outputs": [
        {
          "name": "claimers",
          "type": "address[]",
          "internalType": "address[]"
        },
        {
          "name": "amounts",
          "type": "uint256[]",
          "internalType": "uint256[]"
        }
      ],
      "stateMutability": "view"
    },
    {
      "type": "function",
      "name": "hasClaimed",
      "inputs": [
        {
          "name": "",
          "type": "bytes32",
          "internalType": "bytes32"
        },
        {
          "name": "",
          "type": "address",
          "internalType": "address"
        }
      ],
      "outputs": [
        {
          "name": "",
          "type": "bool",
          "internalType": "bool"
        }
      ],
      "stateMutability": "view"
    },
    {
      "type": "function",
      "name": "pools",
      "inputs": [
        {
          "name": "",
          "type": "bytes32",
          "internalType": "bytes32"
        }
      ],
      "outputs": [
        {
          "name": "creator",
          "type": "address",
          "internalType": "address"
        },
        {
          "name": "token",
          "type": "address",
          "internalType": "address"
        },
        {
          "name": "totalAmount",
          "type": "uint256",
          "internalType": "uint256"
        },
        {
          "name": "remainingAmount",
          "type": "uint256",
          "internalType": "uint256"
        },
        {
          "name": "totalShares",
          "type": "uint8",
          "internalType": "uint8"
        },
        {
          "name": "claimedShares",
          "type": "uint8",
          "internalType": "uint8"
        },
        {
          "name": "commitBlock",
          "type": "uint256",
          "internalType": "uint256"
        },
        {
          "name": "memo",
          "type": "bytes32",
          "internalType": "bytes32"
        },
        {
          "name": "exists",
          "type": "bool",
          "internalType": "bool"
        }
      ],
      "stateMutability": "view"
    },
    {
      "type": "event",
      "name": "Claimed",
      "inputs": [
        {
          "name": "poolId",
          "type": "bytes32",
          "indexed": true,
          "internalType": "bytes32"
        },
        {
          "name": "claimer",
          "type": "address",
          "indexed": true,
          "internalType": "address"
        },
        {
          "name": "amount",
          "type": "uint256",
          "indexed": false,
          "internalType": "uint256"
        },
        {
          "name": "claimIndex",
          "type": "uint8",
          "indexed": false,
          "internalType": "uint8"
        }
      ],
      "anonymous": false
    },
    {
      "type": "event",
      "name": "PoolCreated",
      "inputs": [
        {
          "name": "poolId",
          "type": "bytes32",
          "indexed": true,
          "internalType": "bytes32"
        },
        {
          "name": "creator",
          "type": "address",
          "indexed": true,
          "internalType": "address"
        },
        {
          "name": "token",
          "type": "address",
          "indexed": false,
          "internalType": "address"
        },
        {
          "name": "amount",
          "type": "uint256",
          "indexed": false,
          "internalType": "uint256"
        },
        {
          "name": "shares",
          "type": "uint8",
          "indexed": false,
          "internalType": "uint8"
        },
        {
          "name": "memo",
          "type": "bytes32",
          "indexed": false,
          "internalType": "bytes32"
        }
      ],
      "anonymous": false
    },
    {
      "type": "error",
      "name": "AlreadyClaimed",
      "inputs": []
    },
    {
      "type": "error",
      "name": "InvalidAmount",
      "inputs": []
    },
    {
      "type": "error",
      "name": "InvalidShares",
      "inputs": []
    },
    {
      "type": "error",
      "name": "PoolAlreadyExists",
      "inputs": []
    },
    {
      "type": "error",
      "name": "PoolFullyClaimed",
      "inputs": []
    },
    {
      "type": "error",
      "name": "PoolNotFound",
      "inputs": []
    },
    {
      "type": "error",
      "name": "TransferFailed",
      "inputs": []
    }
  ],
  "bytecode": {
    "object": "0x6080604052348015600e575f80fd5b50611c728061001c5f395ff3fe608060405234801561000f575f80fd5b506004361061009c575f3560e01c8063b5217bb411610064578063b5217bb41461017e578063bd66528a146101b6578063d1198473146101d2578063ddbcb5fa14610202578063f6c00927146102205761009c565b80636abb2733146100a057806382c6e12b146100d057806392a42d1d14610101578063a231edb914610131578063ad6c00691461014d575b5f80fd5b6100ba60048036038101906100b591906111ed565b610250565b6040516100c7919061126a565b60405180910390f35b6100ea60048036038101906100e591906111ed565b61028d565b6040516100f892919061129b565b60405180910390f35b61011b600480360381019061011691906112ec565b610307565b6040516101289190611344565b60405180910390f35b61014b60048036038101906101469190611387565b610331565b005b610167600480360381019061016291906113fe565b6106bf565b604051610175929190611597565b60405180910390f35b610198600480360381019061019391906113fe565b6109ad565b6040516101ad999897969594939291906115ea565b60405180910390f35b6101d060048036038101906101cb91906113fe565b610a59565b005b6101ec60048036038101906101e791906111ed565b610df4565b6040516101f99190611675565b60405180910390f35b61020a610e14565b6040516102179190611675565b60405180910390f35b61023a600480360381019061023591906113fe565b610e1a565b6040516102479190611770565b60405180910390f35b6002602052815f5260405f20602052805f5260405f205f915091509054906101000a900473ffffffffffffffffffffffffffffffffffffffff1681565b5f8060025f8581526020019081526020015f205f8460ff1660ff1681526020019081526020015f205f9054906101000a900473ffffffffffffffffffffffffffffffffffffffff1660035f8681526020019081526020015f205f8560ff1660ff1681526020019081526020015f2054915091509250929050565b6001602052815f5260405f20602052805f5260405f205f915091509054906101000a900460ff1681565b5f808681526020019081526020015f206007015f9054906101000a900460ff1615610388576040517f0311932200000000000000000000000000000000000000000000000000000000815260040160405180910390fd5b5f8460ff16036103c4576040517f6edcc52300000000000000000000000000000000000000000000000000000000815260040160405180910390fd5b6127108460ff166103d591906117b7565b81101561040e576040517f2c5211c600000000000000000000000000000000000000000000000000000000815260040160405180910390fd5b5f8273ffffffffffffffffffffffffffffffffffffffff1663929c2539333085886040518563ffffffff1660e01b815260040161044e94939291906117f8565b6020604051808303815f875af115801561046a573d5f803e3d5ffd5b505050506040513d601f19601f8201168201806040525081019061048e9190611865565b9050806104c7576040517f90b8ec1800000000000000000000000000000000000000000000000000000000815260040160405180910390fd5b6040518061012001604052803373ffffffffffffffffffffffffffffffffffffffff1681526020018473ffffffffffffffffffffffffffffffffffffffff1681526020018381526020018381526020018660ff1681526020015f60ff168152602001438152602001858152602001600115158152505f808881526020019081526020015f205f820151815f015f6101000a81548173ffffffffffffffffffffffffffffffffffffffff021916908373ffffffffffffffffffffffffffffffffffffffff1602179055506020820151816001015f6101000a81548173ffffffffffffffffffffffffffffffffffffffff021916908373ffffffffffffffffffffffffffffffffffffffff16021790555060408201518160020155606082015181600301556080820151816004015f6101000a81548160ff021916908360ff16021790555060a08201518160040160016101000a81548160ff021916908360ff16021790555060c0820151816005015560e08201518160060155610100820151816007015f6101000a81548160ff0219169083151502179055509050503373ffffffffffffffffffffffffffffffffffffffff16867fec8e0b97476f34875e4a116608b0999b29f9cb639c1d6b259e2ab00eba1f003e858589896040516106af9493929190611890565b60405180910390a3505050505050565b6060805f805f8581526020019081526020015f20604051806101200160405290815f82015f9054906101000a900473ffffffffffffffffffffffffffffffffffffffff1673ffffffffffffffffffffffffffffffffffffffff1673ffffffffffffffffffffffffffffffffffffffff168152602001600182015f9054906101000a900473ffffffffffffffffffffffffffffffffffffffff1673ffffffffffffffffffffffffffffffffffffffff1673ffffffffffffffffffffffffffffffffffffffff1681526020016002820154815260200160038201548152602001600482015f9054906101000a900460ff1660ff1660ff1681526020016004820160019054906101000a900460ff1660ff1660ff1681526020016005820154815260200160068201548152602001600782015f9054906101000a900460ff16151515158152505090505f8160a0015190508060ff1667ffffffffffffffff81111561082a576108296118d3565b5b6040519080825280602002602001820160405280156108585781602001602082028036833780820191505090505b5093508060ff1667ffffffffffffffff811115610878576108776118d3565b5b6040519080825280602002602001820160405280156108a65781602001602082028036833780820191505090505b5092505f5b8160ff168160ff1610156109a55760025f8781526020019081526020015f205f8260ff1660ff1681526020019081526020015f205f9054906101000a900473ffffffffffffffffffffffffffffffffffffffff16858260ff168151811061091557610914611900565b5b602002602001019073ffffffffffffffffffffffffffffffffffffffff16908173ffffffffffffffffffffffffffffffffffffffff168152505060035f8781526020019081526020015f205f8260ff1660ff1681526020019081526020015f2054848260ff168151811061098c5761098b611900565b5b60200260200101818152505080806001019150506108ab565b505050915091565b5f602052805f5260405f205f91509050805f015f9054906101000a900473ffffffffffffffffffffffffffffffffffffffff1690806001015f9054906101000a900473ffffffffffffffffffffffffffffffffffffffff1690806002015490806003015490806004015f9054906101000a900460ff16908060040160019054906101000a900460ff1690806005015490806006015490806007015f9054906101000a900460ff16905089565b5f805f8381526020019081526020015f209050806007015f9054906101000a900460ff16610ab3576040517f76ecffc000000000000000000000000000000000000000000000000000000000815260040160405180910390fd5b806004015f9054906101000a900460ff1660ff168160040160019054906101000a900460ff1660ff1610610b13576040517fde2b57c100000000000000000000000000000000000000000000000000000000815260040160405180910390fd5b60015f8381526020019081526020015f205f3373ffffffffffffffffffffffffffffffffffffffff1673ffffffffffffffffffffffffffffffffffffffff1681526020019081526020015f205f9054906101000a900460ff1615610ba3576040517f646cf55800000000000000000000000000000000000000000000000000000000815260040160405180910390fd5b5f8160040160019054906101000a900460ff1690505f610bc4848484610f69565b905082600401600181819054906101000a900460ff1680929190610be79061192d565b91906101000a81548160ff021916908360ff1602179055505080836003015f828254610c139190611955565b925050819055506001805f8681526020019081526020015f205f3373ffffffffffffffffffffffffffffffffffffffff1673ffffffffffffffffffffffffffffffffffffffff1681526020019081526020015f205f6101000a81548160ff0219169083151502179055503360025f8681526020019081526020015f205f8460ff1660ff1681526020019081526020015f205f6101000a81548173ffffffffffffffffffffffffffffffffffffffff021916908373ffffffffffffffffffffffffffffffffffffffff1602179055508060035f8681526020019081526020015f205f8460ff1660ff1681526020019081526020015f2081905550826001015f9054906101000a900473ffffffffffffffffffffffffffffffffffffffff1673ffffffffffffffffffffffffffffffffffffffff166395777d59338386600601546040518463ffffffff1660e01b8152600401610d7093929190611988565b5f604051808303815f87803b158015610d87575f80fd5b505af1158015610d99573d5f803e3d5ffd5b505050503373ffffffffffffffffffffffffffffffffffffffff16847f4b261436069c224055dc819bbef8f4f8b8cd19fc16c9819e783bcc68279ba51e8385604051610de69291906119bd565b60405180910390a350505050565b6003602052815f5260405f20602052805f5260405f205f91509150505481565b61271081565b610e22611106565b5f808381526020019081526020015f20604051806101200160405290815f82015f9054906101000a900473ffffffffffffffffffffffffffffffffffffffff1673ffffffffffffffffffffffffffffffffffffffff1673ffffffffffffffffffffffffffffffffffffffff168152602001600182015f9054906101000a900473ffffffffffffffffffffffffffffffffffffffff1673ffffffffffffffffffffffffffffffffffffffff1673ffffffffffffffffffffffffffffffffffffffff1681526020016002820154815260200160038201548152602001600482015f9054906101000a900460ff1660ff1660ff1681526020016004820160019054906101000a900460ff1660ff1660ff1681526020016005820154815260200160068201548152602001600782015f9054906101000a900460ff1615151515815250509050919050565b5f808360040160019054906101000a900460ff16846004015f9054906101000a900460ff16610f9891906119e4565b905060018160ff1603610fb2578360030154915050611065565b5f610fbd868561106c565b90505f60028360ff168760030154610fd59190611a45565b610fdf91906117b7565b90505f612710600185610ff291906119e4565b60ff16610fff91906117b7565b876003015461100e9190611955565b90508082111561101c578091505b612710821161103357612710945050505050611065565b5f612710836110429190611955565b905061271081856110539190611a75565b61105d9190611aa5565b955050505050505b9392505050565b5f805f808581526020019081526020015f2090505f81600501544090505f801b81146110ca57808533866040516020016110a99493929190611b71565b604051602081830303815290604052805190602001205f1c92505050611100565b84424433876040516020016110e3959493929190611bde565b604051602081830303815290604052805190602001205f1c925050505b92915050565b6040518061012001604052805f73ffffffffffffffffffffffffffffffffffffffff1681526020015f73ffffffffffffffffffffffffffffffffffffffff1681526020015f81526020015f81526020015f60ff1681526020015f60ff1681526020015f81526020015f80191681526020015f151581525090565b5f80fd5b5f819050919050565b61119681611184565b81146111a0575f80fd5b50565b5f813590506111b18161118d565b92915050565b5f60ff82169050919050565b6111cc816111b7565b81146111d6575f80fd5b50565b5f813590506111e7816111c3565b92915050565b5f806040838503121561120357611202611180565b5b5f611210858286016111a3565b9250506020611221858286016111d9565b9150509250929050565b5f73ffffffffffffffffffffffffffffffffffffffff82169050919050565b5f6112548261122b565b9050919050565b6112648161124a565b82525050565b5f60208201905061127d5f83018461125b565b92915050565b5f819050919050565b61129581611283565b82525050565b5f6040820190506112ae5f83018561125b565b6112bb602083018461128c565b9392505050565b6112cb8161124a565b81146112d5575f80fd5b50565b5f813590506112e6816112c2565b92915050565b5f806040838503121561130257611301611180565b5b5f61130f858286016111a3565b9250506020611320858286016112d8565b9150509250929050565b5f8115159050919050565b61133e8161132a565b82525050565b5f6020820190506113575f830184611335565b92915050565b61136681611283565b8114611370575f80fd5b50565b5f813590506113818161135d565b92915050565b5f805f805f60a086880312156113a05761139f611180565b5b5f6113ad888289016111a3565b95505060206113be888289016111d9565b94505060406113cf888289016111a3565b93505060606113e0888289016112d8565b92505060806113f188828901611373565b9150509295509295909350565b5f6020828403121561141357611412611180565b5b5f611420848285016111a3565b91505092915050565b5f81519050919050565b5f82825260208201905092915050565b5f819050602082019050919050565b61145b8161124a565b82525050565b5f61146c8383611452565b60208301905092915050565b5f602082019050919050565b5f61148e82611429565b6114988185611433565b93506114a383611443565b805f5b838110156114d35781516114ba8882611461565b97506114c583611478565b9250506001810190506114a6565b5085935050505092915050565b5f81519050919050565b5f82825260208201905092915050565b5f819050602082019050919050565b61151281611283565b82525050565b5f6115238383611509565b60208301905092915050565b5f602082019050919050565b5f611545826114e0565b61154f81856114ea565b935061155a836114fa565b805f5b8381101561158a5781516115718882611518565b975061157c8361152f565b92505060018101905061155d565b5085935050505092915050565b5f6040820190508181035f8301526115af8185611484565b905081810360208301526115c3818461153b565b90509392505050565b6115d5816111b7565b82525050565b6115e481611184565b82525050565b5f610120820190506115fe5f83018c61125b565b61160b602083018b61125b565b611618604083018a61128c565b611625606083018961128c565b61163260808301886115cc565b61163f60a08301876115cc565b61164c60c083018661128c565b61165960e08301856115db565b611667610100830184611335565b9a9950505050505050505050565b5f6020820190506116885f83018461128c565b92915050565b611697816111b7565b82525050565b6116a681611184565b82525050565b6116b58161132a565b82525050565b61012082015f8201516116d05f850182611452565b5060208201516116e36020850182611452565b5060408201516116f66040850182611509565b5060608201516117096060850182611509565b50608082015161171c608085018261168e565b5060a082015161172f60a085018261168e565b5060c082015161174260c0850182611509565b5060e082015161175560e085018261169d565b5061010082015161176a6101008501826116ac565b50505050565b5f610120820190506117845f8301846116bb565b92915050565b7f4e487b71000000000000000000000000000000000000000000000000000000005f52601160045260245ffd5b5f6117c182611283565b91506117cc83611283565b92508282026117da81611283565b915082820484148315176117f1576117f061178a565b5b5092915050565b5f60808201905061180b5f83018761125b565b611818602083018661125b565b611825604083018561128c565b61183260608301846115db565b95945050505050565b6118448161132a565b811461184e575f80fd5b50565b5f8151905061185f8161183b565b92915050565b5f6020828403121561187a57611879611180565b5b5f61188784828501611851565b91505092915050565b5f6080820190506118a35f83018761125b565b6118b0602083018661128c565b6118bd60408301856115cc565b6118ca60608301846115db565b95945050505050565b7f4e487b71000000000000000000000000000000000000000000000000000000005f52604160045260245ffd5b7f4e487b71000000000000000000000000000000000000000000000000000000005f52603260045260245ffd5b5f611937826111b7565b915060ff820361194a5761194961178a565b5b600182019050919050565b5f61195f82611283565b915061196a83611283565b92508282039050818111156119825761198161178a565b5b92915050565b5f60608201905061199b5f83018661125b565b6119a8602083018561128c565b6119b560408301846115db565b949350505050565b5f6040820190506119d05f83018561128c565b6119dd60208301846115cc565b9392505050565b5f6119ee826111b7565b91506119f9836111b7565b9250828203905060ff811115611a1257611a1161178a565b5b92915050565b7f4e487b71000000000000000000000000000000000000000000000000000000005f52601260045260245ffd5b5f611a4f82611283565b9150611a5a83611283565b925082611a6a57611a69611a18565b5b828204905092915050565b5f611a7f82611283565b9150611a8a83611283565b925082611a9a57611a99611a18565b5b828206905092915050565b5f611aaf82611283565b9150611aba83611283565b9250828201905080821115611ad257611ad161178a565b5b92915050565b5f819050919050565b611af2611aed82611184565b611ad8565b82525050565b5f8160601b9050919050565b5f611b0e82611af8565b9050919050565b5f611b1f82611b04565b9050919050565b611b37611b328261124a565b611b15565b82525050565b5f8160f81b9050919050565b5f611b5382611b3d565b9050919050565b611b6b611b66826111b7565b611b49565b82525050565b5f611b7c8287611ae1565b602082019150611b8c8286611ae1565b602082019150611b9c8285611b26565b601482019150611bac8284611b5a565b60018201915081905095945050505050565b5f819050919050565b611bd8611bd382611283565b611bbe565b82525050565b5f611be98288611ae1565b602082019150611bf98287611bc7565b602082019150611c098286611bc7565b602082019150611c198285611b26565b601482019150611c298284611b5a565b600182019150819050969550505050505056fea264697066735822122025891dea079ebd8d9c37c27a385a2d74bc12c6506708b8b078d7ad625a3fd93e64736f6c63430008190033",
    "linkReferences": {}
  },
  "methodIdentifiers": {
    "MIN_AMOUNT()": "ddbcb5fa",
    "claim(bytes32)": "bd66528a",
    "claimAmounts(bytes32,uint8)": "d1198473",
    "claimants(bytes32,uint8)": "6abb2733",
    "createPool(bytes32,uint8,bytes32,address,uint256)": "a231edb9",
    "getClaimInfo(bytes32,uint8)": "82c6e12b",
    "getPool(bytes32)": "f6c00927",
    "getPoolClaims(bytes32)": "ad6c0069",
    "hasClaimed(bytes32,address)": "92a42d1d",
    "pools(bytes32)": "b5217bb4"
  },
  "id": 32
}