{
  "abi": [
    {
      "type": "function",
      "name": "DEFAULT_EXPIRY",
      "inputs": [],
      "outputs": [
        {
          "name": "",
          "type": "uint256",
          "internalType": "uint256"
        }
      ],
      "stateMutability": "view"
    },
    {
      "type": "function",
      "name": "MIN_AMOUNT",
      "inputs": [],
      "outputs": [
        {
          "name": "",
          "type": "uint256",
          "internalType": "uint256"
        }
      ],
      "stateMutability": "view"
    },
    {
      "type": "function",
      "name": "claim",
      "inputs": [
        {
          "name": "poolId",
          "type": "bytes32",
          "internalType": "bytes32"
        }
      ],
      "outputs": [],
      "stateMutability": "nonpayable"
    },
    {
      "type": "function",
      "name": "claimAmounts",
      "inputs": [
        {
          "name": "",
          "type": "bytes32",
          "internalType": "bytes32"
        },
        {
          "name": "",
          "type": "uint8",
          "internalType": "uint8"
        }
      ],
      "outputs": [
        {
          "name": "",
          "type": "uint256",
          "internalType": "uint256"
        }
      ],
      "stateMutability": "view"
    },
    {
      "type": "function",
      "name": "claimants",
      "inputs": [
        {
          "name": "",
          "type": "bytes32",
          "internalType": "bytes32"
        },
        {
          "name": "",
          "type": "uint8",
          "internalType": "uint8"
        }
      ],
      "outputs": [
        {
          "name": "",
          "type": "address",
          "internalType": "address"
        }
      ],
      "stateMutability": "view"
    },
    {
      "type": "function",
      "name": "createPool",
      "inputs": [
        {
          "name": "poolId",
          "type": "bytes32",
          "internalType": "bytes32"
        },
        {
          "name": "shares",
          "type": "uint8",
          "internalType": "uint8"
        },
        {
          "name": "memo",
          "type": "bytes32",
          "internalType": "bytes32"
        },
        {
          "name": "token",
          "type": "address",
          "internalType": "address"
        },
        {
          "name": "amount",
          "type": "uint256",
          "internalType": "uint256"
        }
      ],
      "outputs": [],
      "stateMutability": "nonpayable"
    },
    {
      "type": "function",
      "name": "createPoolWithExpiry",
      "inputs": [
        {
          "name": "poolId",
          "type": "bytes32",
          "internalType": "bytes32"
        },
        {
          "name": "shares",
          "type": "uint8",
          "internalType": "uint8"
        },
        {
          "name": "memo",
          "type": "bytes32",
          "internalType": "bytes32"
        },
        {
          "name": "token",
          "type": "address",
          "internalType": "address"
        },
        {
          "name": "amount",
          "type": "uint256",
          "internalType": "uint256"
        },
        {
          "name": "duration",
          "type": "uint256",
          "internalType": "uint256"
        }
      ],
      "outputs": [],
      "stateMutability": "nonpayable"
    },
    {
      "type": "function",
      "name": "getClaimInfo",
      "inputs": [
        {
          "name": "poolId",
          "type": "bytes32",
          "internalType": "bytes32"
        },
        {
          "name": "claimIndex",
          "type": "uint8",
          "internalType": "uint8"
        }
      ],
      "outputs": [
        {
          "name": "claimer",
          "type": "address",
          "internalType": "address"
        },
        {
          "name": "amount",
          "type": "uint256",
          "internalType": "uint256"
        }
      ],
      "stateMutability": "view"
    },
    {
      "type": "function",
      "name": "getPool",
      "inputs": [
        {
          "name": "poolId",
          "type": "bytes32",
          "internalType": "bytes32"
        }
      ],
      "outputs": [
        {
          "name": "",
          "type": "tuple",
          "internalType": "struct PacketPool.Pool",
          "components": [
            {
              "name": "creator",
              "type": "address",
              "internalType": "address"
            },
            {
              "name": "token",
              "type": "address",
              "internalType": "address"
            },
            {
              "name": "totalAmount",
              "type": "uint256",
              "internalType": "uint256"
            },
            {
              "name": "remainingAmount",
              "type": "uint256",
              "internalType": "uint256"
            },
            {
              "name": "totalShares",
              "type": "uint8",
              "internalType": "uint8"
            },
            {
              "name": "claimedShares",
              "type": "uint8",
              "internalType": "uint8"
            },
            {
              "name": "commitBlock",
              "type": "uint256",
              "internalType": "uint256"
            },
            {
              "name": "expiresAt",
              "type": "uint256",
              "internalType": "uint256"
            },
            {
              "name": "memo",
              "type": "bytes32",
              "internalType": "bytes32"
            },
            {
              "name": "exists",
              "type": "bool",
              "internalType": "bool"
            }
          ]
        }
      ],
      "stateMutability": "view"
    },
    {
      "type": "function",
      "name": "getPoolClaims",
      "inputs": [
        {
          "name": "poolId",
          "type": "bytes32",
          "internalType": "bytes32"
        }
      ],
      "outputs": [
        {
          "name": "claimers",
          "type": "address[]",
          "internalType": "address[]"
        },
        {
          "name": "amounts",
          "type": "uint256[]",
          "internalType": "uint256[]"
        }
      ],
      "stateMutability": "view"
    },
    {
      "type": "function",
      "name": "hasClaimed",
      "inputs": [
        {
          "name": "",
          "type": "bytes32",
          "internalType": "bytes32"
        },
        {
          "name": "",
          "type": "address",
          "internalType": "address"
        }
      ],
      "outputs": [
        {
          "name": "",
          "type": "bool",
          "internalType": "bool"
        }
      ],
      "stateMutability": "view"
    },
    {
      "type": "function",
      "name": "pools",
      "inputs": [
        {
          "name": "",
          "type": "bytes32",
          "internalType": "bytes32"
        }
      ],
      "outputs": [
        {
          "name": "creator",
          "type": "address",
          "internalType": "address"
        },
        {
          "name": "token",
          "type": "address",
          "internalType": "address"
        },
        {
          "name": "totalAmount",
          "type": "uint256",
          "internalType": "uint256"
        },
        {
          "name": "remainingAmount",
          "type": "uint256",
          "internalType": "uint256"
        },
        {
          "name": "totalShares",
          "type": "uint8",
          "internalType": "uint8"
        },
        {
          "name": "claimedShares",
          "type": "uint8",
          "internalType": "uint8"
        },
        {
          "name": "commitBlock",
          "type": "uint256",
          "internalType": "uint256"
        },
        {
          "name": "expiresAt",
          "type": "uint256",
          "internalType": "uint256"
        },
        {
          "name": "memo",
          "type": "bytes32",
          "internalType": "bytes32"
        },
        {
          "name": "exists",
          "type": "bool",
          "internalType": "bool"
        }
      ],
      "stateMutability": "view"
    },
    {
      "type": "function",
      "name": "refund",
      "inputs": [
        {
          "name": "poolId",
          "type": "bytes32",
          "internalType": "bytes32"
        }
      ],
      "outputs": [],
      "stateMutability": "nonpayable"
    },
    {
      "type": "event",
      "name": "Claimed",
      "inputs": [
        {
          "name": "poolId",
          "type": "bytes32",
          "indexed": true,
          "internalType": "bytes32"
        },
        {
          "name": "claimer",
          "type": "address",
          "indexed": true,
          "internalType": "address"
        },
        {
          "name": "amount",
          "type": "uint256",
          "indexed": false,
          "internalType": "uint256"
        },
        {
          "name": "claimIndex",
          "type": "uint8",
          "indexed": false,
          "internalType": "uint8"
        }
      ],
      "anonymous": false
    },
    {
      "type": "event",
      "name": "PoolCreated",
      "inputs": [
        {
          "name": "poolId",
          "type": "bytes32",
          "indexed": true,
          "internalType": "bytes32"
        },
        {
          "name": "creator",
          "type": "address",
          "indexed": true,
          "internalType": "address"
        },
        {
          "name": "token",
          "type": "address",
          "indexed": false,
          "internalType": "address"
        },
        {
          "name": "amount",
          "type": "uint256",
          "indexed": false,
          "internalType": "uint256"
        },
        {
          "name": "shares",
          "type": "uint8",
          "indexed": false,
          "internalType": "uint8"
        },
        {
          "name": "memo",
          "type": "bytes32",
          "indexed": false,
          "internalType": "bytes32"
        },
        {
          "name": "expiresAt",
          "type": "uint256",
          "indexed": false,
          "internalType": "uint256"
        }
      ],
      "anonymous": false
    },
    {
      "type": "event",
      "name": "Refunded",
      "inputs": [
        {
          "name": "poolId",
          "type": "bytes32",
          "indexed": true,
          "internalType": "bytes32"
        },
        {
          "name": "creator",
          "type": "address",
          "indexed": true,
          "internalType": "address"
        },
        {
          "name": "amount",
          "type": "uint256",
          "indexed": false,
          "internalType": "uint256"
        }
      ],
      "anonymous": false
    },
    {
      "type": "error",
      "name": "AlreadyClaimed",
      "inputs": []
    },
    {
      "type": "error",
      "name": "InvalidAmount",
      "inputs": []
    },
    {
      "type": "error",
      "name": "InvalidShares",
      "inputs": []
    },
    {
      "type": "error",
      "name": "NotPoolCreator",
      "inputs": []
    },
    {
      "type": "error",
      "name": "NothingToRefund",
      "inputs": []
    },
    {
      "type": "error",
      "name": "PoolAlreadyExists",
      "inputs": []
    },
    {
      "type": "error",
      "name": "PoolExpired",
      "inputs": []
    },
    {
      "type": "error",
      "name": "PoolFullyClaimed",
      "inputs": []
    },
    {
      "type": "error",
      "name": "PoolNotExpired",
      "inputs": []
    },
    {
      "type": "error",
      "name": "PoolNotFound",
      "inputs": []
    },
    {
      "type": "error",
      "name": "TransferFailed",
      "inputs": []
    }
  ],
  "bytecode": {
    "object": "0x6080604052348015600e575f80fd5b506120ea8061001c5f395ff3fe608060405234801561000f575f80fd5b50600436106100cd575f3560e01c8063a231edb91161008a578063bd66528a11610064578063bd66528a1461023e578063d11984731461025a578063ddbcb5fa1461028a578063f6c00927146102a8576100cd565b8063a231edb9146101b8578063ad6c0069146101d4578063b5217bb414610205576100cd565b806351761bcc146100d15780636abb2733146100ef5780637249fbb61461011f57806382c6e12b1461013b5780638c06590a1461016c57806392a42d1d14610188575b5f80fd5b6100d96102d8565b6040516100e69190611555565b60405180910390f35b610109600480360381019061010491906115db565b6102df565b6040516101169190611658565b60405180910390f35b61013960048036038101906101349190611671565b61031c565b005b610155600480360381019061015091906115db565b61059b565b60405161016392919061169c565b60405180910390f35b61018660048036038101906101819190611717565b610615565b005b6101a2600480360381019061019d91906117a0565b61062b565b6040516101af91906117f8565b60405180910390f35b6101d260048036038101906101cd9190611811565b610655565b005b6101ee60048036038101906101e99190611671565b61066d565b6040516101fc9291906119f6565b60405180910390f35b61021f600480360381019061021a9190611671565b610965565b6040516102359a99989796959493929190611a49565b60405180910390f35b61025860048036038101906102539190611671565b610a17565b005b610274600480360381019061026f91906115db565b610def565b6040516102819190611555565b60405180910390f35b610292610e0f565b60405161029f9190611555565b60405180910390f35b6102c260048036038101906102bd9190611671565b610e15565b6040516102cf9190611bda565b60405180910390f35b6201518081565b6002602052815f5260405f20602052805f5260405f205f915091509054906101000a900473ffffffffffffffffffffffffffffffffffffffff1681565b5f805f8381526020019081526020015f209050806008015f9054906101000a900460ff16610376576040517f76ecffc000000000000000000000000000000000000000000000000000000000815260040160405180910390fd5b805f015f9054906101000a900473ffffffffffffffffffffffffffffffffffffffff1673ffffffffffffffffffffffffffffffffffffffff163373ffffffffffffffffffffffffffffffffffffffff16146103fd576040517f2e12111e00000000000000000000000000000000000000000000000000000000815260040160405180910390fd5b806006015442101561043b576040517f71ec6cae00000000000000000000000000000000000000000000000000000000815260040160405180910390fd5b5f816003015403610478576040517ff76aef6500000000000000000000000000000000000000000000000000000000815260040160405180910390fd5b5f816003015490505f8260030181905550816004015f9054906101000a900460ff168260040160016101000a81548160ff021916908360ff160217905550816001015f9054906101000a900473ffffffffffffffffffffffffffffffffffffffff1673ffffffffffffffffffffffffffffffffffffffff166395777d59338385600701546040518463ffffffff1660e01b815260040161051a93929190611bf4565b5f604051808303815f87803b158015610531575f80fd5b505af1158015610543573d5f803e3d5ffd5b505050503373ffffffffffffffffffffffffffffffffffffffff16837ff552ca82e113ac3c539c3d617f29fcd19c172a0c75dad017555c9e109f7fe1838360405161058e9190611555565b60405180910390a3505050565b5f8060025f8581526020019081526020015f205f8460ff1660ff1681526020019081526020015f205f9054906101000a900473ffffffffffffffffffffffffffffffffffffffff1660035f8681526020019081526020015f205f8560ff1660ff1681526020019081526020015f2054915091509250929050565b610623868686868686610f6e565b505050505050565b6001602052815f5260405f20602052805f5260405f205f915091509054906101000a900460ff1681565b610666858585858562015180610f6e565b5050505050565b6060805f805f8581526020019081526020015f20604051806101400160405290815f82015f9054906101000a900473ffffffffffffffffffffffffffffffffffffffff1673ffffffffffffffffffffffffffffffffffffffff1673ffffffffffffffffffffffffffffffffffffffff168152602001600182015f9054906101000a900473ffffffffffffffffffffffffffffffffffffffff1673ffffffffffffffffffffffffffffffffffffffff1673ffffffffffffffffffffffffffffffffffffffff1681526020016002820154815260200160038201548152602001600482015f9054906101000a900460ff1660ff1660ff1681526020016004820160019054906101000a900460ff1660ff1660ff168152602001600582015481526020016006820154815260200160078201548152602001600882015f9054906101000a900460ff16151515158152505090505f8160a0015190508060ff1667ffffffffffffffff8111156107e2576107e1611c29565b5b6040519080825280602002602001820160405280156108105781602001602082028036833780820191505090505b5093508060ff1667ffffffffffffffff8111156108305761082f611c29565b5b60405190808252806020026020018201604052801561085e5781602001602082028036833780820191505090505b5092505f5b8160ff168160ff16101561095d5760025f8781526020019081526020015f205f8260ff1660ff1681526020019081526020015f205f9054906101000a900473ffffffffffffffffffffffffffffffffffffffff16858260ff16815181106108cd576108cc611c56565b5b602002602001019073ffffffffffffffffffffffffffffffffffffffff16908173ffffffffffffffffffffffffffffffffffffffff168152505060035f8781526020019081526020015f205f8260ff1660ff1681526020019081526020015f2054848260ff168151811061094457610943611c56565b5b6020026020010181815250508080600101915050610863565b505050915091565b5f602052805f5260405f205f91509050805f015f9054906101000a900473ffffffffffffffffffffffffffffffffffffffff1690806001015f9054906101000a900473ffffffffffffffffffffffffffffffffffffffff1690806002015490806003015490806004015f9054906101000a900460ff16908060040160019054906101000a900460ff1690806005015490806006015490806007015490806008015f9054906101000a900460ff1690508a565b5f805f8381526020019081526020015f209050806008015f9054906101000a900460ff16610a71576040517f76ecffc000000000000000000000000000000000000000000000000000000000815260040160405180910390fd5b806004015f9054906101000a900460ff1660ff168160040160019054906101000a900460ff1660ff1610610ad1576040517fde2b57c100000000000000000000000000000000000000000000000000000000815260040160405180910390fd5b80600601544210610b0e576040517f398b36db00000000000000000000000000000000000000000000000000000000815260040160405180910390fd5b60015f8381526020019081526020015f205f3373ffffffffffffffffffffffffffffffffffffffff1673ffffffffffffffffffffffffffffffffffffffff1681526020019081526020015f205f9054906101000a900460ff1615610b9e576040517f646cf55800000000000000000000000000000000000000000000000000000000815260040160405180910390fd5b5f8160040160019054906101000a900460ff1690505f610bbf848484611320565b905082600401600181819054906101000a900460ff1680929190610be290611cb0565b91906101000a81548160ff021916908360ff1602179055505080836003015f828254610c0e9190611cd8565b925050819055506001805f8681526020019081526020015f205f3373ffffffffffffffffffffffffffffffffffffffff1673ffffffffffffffffffffffffffffffffffffffff1681526020019081526020015f205f6101000a81548160ff0219169083151502179055503360025f8681526020019081526020015f205f8460ff1660ff1681526020019081526020015f205f6101000a81548173ffffffffffffffffffffffffffffffffffffffff021916908373ffffffffffffffffffffffffffffffffffffffff1602179055508060035f8681526020019081526020015f205f8460ff1660ff1681526020019081526020015f2081905550826001015f9054906101000a900473ffffffffffffffffffffffffffffffffffffffff1673ffffffffffffffffffffffffffffffffffffffff166395777d59338386600701546040518463ffffffff1660e01b8152600401610d6b93929190611bf4565b5f604051808303815f87803b158015610d82575f80fd5b505af1158015610d94573d5f803e3d5ffd5b505050503373ffffffffffffffffffffffffffffffffffffffff16847f4b261436069c224055dc819bbef8f4f8b8cd19fc16c9819e783bcc68279ba51e8385604051610de1929190611d0b565b60405180910390a350505050565b6003602052815f5260405f20602052805f5260405f205f91509150505481565b61271081565b610e1d6114bd565b5f808381526020019081526020015f20604051806101400160405290815f82015f9054906101000a900473ffffffffffffffffffffffffffffffffffffffff1673ffffffffffffffffffffffffffffffffffffffff1673ffffffffffffffffffffffffffffffffffffffff168152602001600182015f9054906101000a900473ffffffffffffffffffffffffffffffffffffffff1673ffffffffffffffffffffffffffffffffffffffff1673ffffffffffffffffffffffffffffffffffffffff1681526020016002820154815260200160038201548152602001600482015f9054906101000a900460ff1660ff1660ff1681526020016004820160019054906101000a900460ff1660ff1660ff168152602001600582015481526020016006820154815260200160078201548152602001600882015f9054906101000a900460ff1615151515815250509050919050565b5f808781526020019081526020015f206008015f9054906101000a900460ff1615610fc5576040517f0311932200000000000000000000000000000000000000000000000000000000815260040160405180910390fd5b5f8560ff1603611001576040517f6edcc52300000000000000000000000000000000000000000000000000000000815260040160405180910390fd5b6127108560ff166110129190611d32565b82101561104b576040517f2c5211c600000000000000000000000000000000000000000000000000000000815260040160405180910390fd5b5f8373ffffffffffffffffffffffffffffffffffffffff1663929c2539333086896040518563ffffffff1660e01b815260040161108b9493929190611d73565b6020604051808303815f875af11580156110a7573d5f803e3d5ffd5b505050506040513d601f19601f820116820180604052508101906110cb9190611de0565b905080611104576040517f90b8ec1800000000000000000000000000000000000000000000000000000000815260040160405180910390fd5b5f82426111119190611e0b565b90506040518061014001604052803373ffffffffffffffffffffffffffffffffffffffff1681526020018673ffffffffffffffffffffffffffffffffffffffff1681526020018581526020018581526020018860ff1681526020015f60ff168152602001438152602001828152602001878152602001600115158152505f808a81526020019081526020015f205f820151815f015f6101000a81548173ffffffffffffffffffffffffffffffffffffffff021916908373ffffffffffffffffffffffffffffffffffffffff1602179055506020820151816001015f6101000a81548173ffffffffffffffffffffffffffffffffffffffff021916908373ffffffffffffffffffffffffffffffffffffffff16021790555060408201518160020155606082015181600301556080820151816004015f6101000a81548160ff021916908360ff16021790555060a08201518160040160016101000a81548160ff021916908360ff16021790555060c0820151816005015560e082015181600601556101008201518160070155610120820151816008015f6101000a81548160ff0219169083151502179055509050503373ffffffffffffffffffffffffffffffffffffffff16887fa959221835d87df90cfc85f62c70867935e103a7e0cdcb0ab2480fe11663698187878b8b8760405161130e959493929190611e3e565b60405180910390a35050505050505050565b5f808360040160019054906101000a900460ff16846004015f9054906101000a900460ff1661134f9190611e8f565b905060018160ff160361136957836003015491505061141c565b5f6113748685611423565b90505f60028360ff16876003015461138c9190611ef0565b6113969190611d32565b90505f6127106001856113a99190611e8f565b60ff166113b69190611d32565b87600301546113c59190611cd8565b9050808211156113d3578091505b61271082116113ea5761271094505050505061141c565b5f612710836113f99190611cd8565b9050612710818561140a9190611f20565b6114149190611e0b565b955050505050505b9392505050565b5f805f808581526020019081526020015f2090505f81600501544090505f801b811461148157808533866040516020016114609493929190611fe9565b604051602081830303815290604052805190602001205f1c925050506114b7565b844244338760405160200161149a959493929190612056565b604051602081830303815290604052805190602001205f1c925050505b92915050565b6040518061014001604052805f73ffffffffffffffffffffffffffffffffffffffff1681526020015f73ffffffffffffffffffffffffffffffffffffffff1681526020015f81526020015f81526020015f60ff1681526020015f60ff1681526020015f81526020015f81526020015f80191681526020015f151581525090565b5f819050919050565b61154f8161153d565b82525050565b5f6020820190506115685f830184611546565b92915050565b5f80fd5b5f819050919050565b61158481611572565b811461158e575f80fd5b50565b5f8135905061159f8161157b565b92915050565b5f60ff82169050919050565b6115ba816115a5565b81146115c4575f80fd5b50565b5f813590506115d5816115b1565b92915050565b5f80604083850312156115f1576115f061156e565b5b5f6115fe85828601611591565b925050602061160f858286016115c7565b9150509250929050565b5f73ffffffffffffffffffffffffffffffffffffffff82169050919050565b5f61164282611619565b9050919050565b61165281611638565b82525050565b5f60208201905061166b5f830184611649565b92915050565b5f602082840312156116865761168561156e565b5b5f61169384828501611591565b91505092915050565b5f6040820190506116af5f830185611649565b6116bc6020830184611546565b9392505050565b6116cc81611638565b81146116d6575f80fd5b50565b5f813590506116e7816116c3565b92915050565b6116f68161153d565b8114611700575f80fd5b50565b5f81359050611711816116ed565b92915050565b5f805f805f8060c087890312156117315761173061156e565b5b5f61173e89828a01611591565b965050602061174f89828a016115c7565b955050604061176089828a01611591565b945050606061177189828a016116d9565b935050608061178289828a01611703565b92505060a061179389828a01611703565b9150509295509295509295565b5f80604083850312156117b6576117b561156e565b5b5f6117c385828601611591565b92505060206117d4858286016116d9565b9150509250929050565b5f8115159050919050565b6117f2816117de565b82525050565b5f60208201905061180b5f8301846117e9565b92915050565b5f805f805f60a0868803121561182a5761182961156e565b5b5f61183788828901611591565b9550506020611848888289016115c7565b945050604061185988828901611591565b935050606061186a888289016116d9565b925050608061187b88828901611703565b9150509295509295909350565b5f81519050919050565b5f82825260208201905092915050565b5f819050602082019050919050565b6118ba81611638565b82525050565b5f6118cb83836118b1565b60208301905092915050565b5f602082019050919050565b5f6118ed82611888565b6118f78185611892565b9350611902836118a2565b805f5b8381101561193257815161191988826118c0565b9750611924836118d7565b925050600181019050611905565b5085935050505092915050565b5f81519050919050565b5f82825260208201905092915050565b5f819050602082019050919050565b6119718161153d565b82525050565b5f6119828383611968565b60208301905092915050565b5f602082019050919050565b5f6119a48261193f565b6119ae8185611949565b93506119b983611959565b805f5b838110156119e95781516119d08882611977565b97506119db8361198e565b9250506001810190506119bc565b5085935050505092915050565b5f6040820190508181035f830152611a0e81856118e3565b90508181036020830152611a22818461199a565b90509392505050565b611a34816115a5565b82525050565b611a4381611572565b82525050565b5f61014082019050611a5d5f83018d611649565b611a6a602083018c611649565b611a77604083018b611546565b611a84606083018a611546565b611a916080830189611a2b565b611a9e60a0830188611a2b565b611aab60c0830187611546565b611ab860e0830186611546565b611ac6610100830185611a3a565b611ad46101208301846117e9565b9b9a5050505050505050505050565b611aec816115a5565b82525050565b611afb81611572565b82525050565b611b0a816117de565b82525050565b61014082015f820151611b255f8501826118b1565b506020820151611b3860208501826118b1565b506040820151611b4b6040850182611968565b506060820151611b5e6060850182611968565b506080820151611b716080850182611ae3565b5060a0820151611b8460a0850182611ae3565b5060c0820151611b9760c0850182611968565b5060e0820151611baa60e0850182611968565b50610100820151611bbf610100850182611af2565b50610120820151611bd4610120850182611b01565b50505050565b5f61014082019050611bee5f830184611b10565b92915050565b5f606082019050611c075f830186611649565b611c146020830185611546565b611c216040830184611a3a565b949350505050565b7f4e487b71000000000000000000000000000000000000000000000000000000005f52604160045260245ffd5b7f4e487b71000000000000000000000000000000000000000000000000000000005f52603260045260245ffd5b7f4e487b71000000000000000000000000000000000000000000000000000000005f52601160045260245ffd5b5f611cba826115a5565b915060ff8203611ccd57611ccc611c83565b5b600182019050919050565b5f611ce28261153d565b9150611ced8361153d565b9250828203905081811115611d0557611d04611c83565b5b92915050565b5f604082019050611d1e5f830185611546565b611d2b6020830184611a2b565b9392505050565b5f611d3c8261153d565b9150611d478361153d565b9250828202611d558161153d565b91508282048414831517611d6c57611d6b611c83565b5b5092915050565b5f608082019050611d865f830187611649565b611d936020830186611649565b611da06040830185611546565b611dad6060830184611a3a565b95945050505050565b611dbf816117de565b8114611dc9575f80fd5b50565b5f81519050611dda81611db6565b92915050565b5f60208284031215611df557611df461156e565b5b5f611e0284828501611dcc565b91505092915050565b5f611e158261153d565b9150611e208361153d565b9250828201905080821115611e3857611e37611c83565b5b92915050565b5f60a082019050611e515f830188611649565b611e5e6020830187611546565b611e6b6040830186611a2b565b611e786060830185611a3a565b611e856080830184611546565b9695505050505050565b5f611e99826115a5565b9150611ea4836115a5565b9250828203905060ff811115611ebd57611ebc611c83565b5b92915050565b7f4e487b71000000000000000000000000000000000000000000000000000000005f52601260045260245ffd5b5f611efa8261153d565b9150611f058361153d565b925082611f1557611f14611ec3565b5b828204905092915050565b5f611f2a8261153d565b9150611f358361153d565b925082611f4557611f44611ec3565b5b828206905092915050565b5f819050919050565b611f6a611f6582611572565b611f50565b82525050565b5f8160601b9050919050565b5f611f8682611f70565b9050919050565b5f611f9782611f7c565b9050919050565b611faf611faa82611638565b611f8d565b82525050565b5f8160f81b9050919050565b5f611fcb82611fb5565b9050919050565b611fe3611fde826115a5565b611fc1565b82525050565b5f611ff48287611f59565b6020820191506120048286611f59565b6020820191506120148285611f9e565b6014820191506120248284611fd2565b60018201915081905095945050505050565b5f819050919050565b61205061204b8261153d565b612036565b82525050565b5f6120618288611f59565b602082019150612071828761203f565b602082019150612081828661203f565b6020820191506120918285611f9e565b6014820191506120a18284611fd2565b600182019150819050969550505050505056fea26469706673582212208856eafff7b9519c1789e30821de4b39d8da38f34d7835dbf4a66d04f797b5cb64736f6c63430008190033",
    "linkReferences": {}
  },
  "methodIdentifiers": {
    "DEFAULT_EXPIRY()": "51761bcc",
    "MIN_AMOUNT()": "ddbcb5fa",
    "claim(bytes32)": "bd66528a",
    "claimAmounts(bytes32,uint8)": "d1198473",
    "claimants(bytes32,uint8)": "6abb2733",
    "createPool(bytes32,uint8,bytes32,address,uint256)": "a231edb9",
    "createPoolWithExpiry(bytes32,uint8,bytes32,address,uint256,uint256)": "8c06590a",
    "getClaimInfo(bytes32,uint8)": "82c6e12b",
    "getPool(bytes32)": "f6c00927",
    "getPoolClaims(bytes32)": "ad6c0069",
    "hasClaimed(bytes32,address)": "92a42d1d",
    "pools(bytes32)": "b5217bb4",
    "refund(bytes32)": "7249fbb6"
  },
  "id": 32
}