{
  "abi": [
    {
      "type": "constructor",
      "inputs": [
        {
          "name": "token_",
          "type": "address",
          "internalType": "contract ITIP20"
        }
      ],
      "stateMutability": "nonpayable"
    },
    {
      "type": "function",
      "name": "sendMail",
      "inputs": [
        {
          "name": "to",
          "type": "address",
          "internalType": "address"
        },
        {
          "name": "message",
          "type": "string",
          "internalType": "string"
        },
        {
          "name": "attachment",
          "type": "tuple",
          "internalType": "struct Mail.Attachment",
          "components": [
            {
              "name": "amount",
              "type": "uint256",
              "internalType": "uint256"
            },
            {
              "name": "memo",
              "type": "bytes32",
              "internalType": "bytes32"
            }
          ]
        }
      ],
      "outputs": [],
      "stateMutability": "nonpayable"
    },
    {
      "type": "function",
      "name": "token",
      "inputs": [],
      "outputs": [
        {
          "name": "",
          "type": "address",
          "internalType": "contract ITIP20"
        }
      ],
      "stateMutability": "view"
    },
    {
      "type": "event",
      "name": "MailSent",
      "inputs": [
        {
          "name": "from",
          "type": "address",
          "indexed": true,
          "internalType": "address"
        },
        {
          "name": "to",
          "type": "address",
          "indexed": true,
          "internalType": "address"
        },
        {
          "name": "message",
          "type": "string",
          "indexed": false,
          "internalType": "string"
        },
        {
          "name": "attachment",
          "type": "tuple",
          "indexed": false,
          "internalType": "struct Mail.Attachment",
          "components": [
            {
              "name": "amount",
              "type": "uint256",
              "internalType": "uint256"
            },
            {
              "name": "memo",
              "type": "bytes32",
              "internalType": "bytes32"
            }
          ]
        }
      ],
      "anonymous": false
    }
  ],
  "bytecode": {
    "object": "0x608060405234801561000f575f80fd5b506040516107e13803806107e1833981810160405281019061003191906100e5565b805f806101000a81548173ffffffffffffffffffffffffffffffffffffffff021916908373ffffffffffffffffffffffffffffffffffffffff16021790555050610110565b5f80fd5b5f73ffffffffffffffffffffffffffffffffffffffff82169050919050565b5f6100a38261007a565b9050919050565b5f6100b482610099565b9050919050565b6100c4816100aa565b81146100ce575f80fd5b50565b5f815190506100df816100bb565b92915050565b5f602082840312156100fa576100f9610076565b5b5f610107848285016100d1565b91505092915050565b6106c48061011d5f395ff3fe608060405234801561000f575f80fd5b5060043610610034575f3560e01c80634f76b5ff14610038578063fc0c546a14610054575b5f80fd5b610052600480360381019061004d9190610405565b610072565b005b61005c610184565b60405161006991906104cc565b60405180910390f35b5f8054906101000a900473ffffffffffffffffffffffffffffffffffffffff1673ffffffffffffffffffffffffffffffffffffffff1663929c25393385845f015185602001516040518563ffffffff1660e01b81526004016100d79493929190610512565b6020604051808303815f875af11580156100f3573d5f803e3d5ffd5b505050506040513d601f19601f82011682018060405250810190610117919061058a565b508273ffffffffffffffffffffffffffffffffffffffff163373ffffffffffffffffffffffffffffffffffffffff167f64d16740b35b46dccf295947317caa74afbf545a5351f8f0e968a2ffd0a46e7a8484604051610177929190610660565b60405180910390a3505050565b5f8054906101000a900473ffffffffffffffffffffffffffffffffffffffff1681565b5f604051905090565b5f80fd5b5f80fd5b5f73ffffffffffffffffffffffffffffffffffffffff82169050919050565b5f6101e1826101b8565b9050919050565b6101f1816101d7565b81146101fb575f80fd5b50565b5f8135905061020c816101e8565b92915050565b5f80fd5b5f80fd5b5f601f19601f8301169050919050565b7f4e487b71000000000000000000000000000000000000000000000000000000005f52604160045260245ffd5b6102608261021a565b810181811067ffffffffffffffff8211171561027f5761027e61022a565b5b80604052505050565b5f6102916101a7565b905061029d8282610257565b919050565b5f67ffffffffffffffff8211156102bc576102bb61022a565b5b6102c58261021a565b9050602081019050919050565b828183375f83830152505050565b5f6102f26102ed846102a2565b610288565b90508281526020810184848401111561030e5761030d610216565b5b6103198482856102d2565b509392505050565b5f82601f83011261033557610334610212565b5b81356103458482602086016102e0565b91505092915050565b5f80fd5b5f819050919050565b61036481610352565b811461036e575f80fd5b50565b5f8135905061037f8161035b565b92915050565b5f819050919050565b61039781610385565b81146103a1575f80fd5b50565b5f813590506103b28161038e565b92915050565b5f604082840312156103cd576103cc61034e565b5b6103d76040610288565b90505f6103e684828501610371565b5f8301525060206103f9848285016103a4565b60208301525092915050565b5f805f6080848603121561041c5761041b6101b0565b5b5f610429868287016101fe565b935050602084013567ffffffffffffffff81111561044a576104496101b4565b5b61045686828701610321565b9250506040610467868287016103b8565b9150509250925092565b5f819050919050565b5f61049461048f61048a846101b8565b610471565b6101b8565b9050919050565b5f6104a58261047a565b9050919050565b5f6104b68261049b565b9050919050565b6104c6816104ac565b82525050565b5f6020820190506104df5f8301846104bd565b92915050565b6104ee816101d7565b82525050565b6104fd81610352565b82525050565b61050c81610385565b82525050565b5f6080820190506105255f8301876104e5565b61053260208301866104e5565b61053f60408301856104f4565b61054c6060830184610503565b95945050505050565b5f8115159050919050565b61056981610555565b8114610573575f80fd5b50565b5f8151905061058481610560565b92915050565b5f6020828403121561059f5761059e6101b0565b5b5f6105ac84828501610576565b91505092915050565b5f81519050919050565b5f82825260208201905092915050565b8281835e5f83830152505050565b5f6105e7826105b5565b6105f181856105bf565b93506106018185602086016105cf565b61060a8161021a565b840191505092915050565b61061e81610352565b82525050565b61062d81610385565b82525050565b604082015f8201516106475f850182610615565b50602082015161065a6020850182610624565b50505050565b5f6060820190508181035f83015261067881856105dd565b90506106876020830184610633565b939250505056fea264697066735822122085fbef12d3a90271f89d4a70b3f250eca4c76e7a48cf0fa0be9872cbd90d9ffa64736f6c63430008190033",
    "linkReferences": {}
  },
  "methodIdentifiers": {
    "sendMail(address,string,(uint256,bytes32))": "4f76b5ff",
    "token()": "fc0c546a"
  },
  "id": 34
}